:100000000C942A000C94EF0E0C9422100C944700D0
:100010000C9447000C9447000C9447000C94470044
:100020000C9447000C9447000C9447000C94470034
:100030000C9447000C9447000C9447000C94470024
:100040000C9447000C9447000C9447000C94470014
:100050000C94470011241FBECFE5D8E0DEBFCDBF12
:1000600010E0A0E6B0E0E4E0F5E202C005900D92F9
:10007000AA3AB107D9F720E0AAEAB0E001C01D9280
:10008000A23BB207E1F70E94650A0C9480120C941F
:100090000000CF93DF93CDB7DEB787E290E0FC019D
:1000A000208187E290E02064FC01208387E290E0D9
:1000B000FC01208187E290E02F77FC01208387E21A
:1000C00090E0FC01208187E290E02F7DFC012083FD
:1000D00086E290E0FC01208186E290E02160FC0154
:1000E000208386E290E0FC01208186E290E022609D
:1000F000FC01208386E290E0FC01208186E290E012
:100100002460FC01208386E290E0FC01208186E2ED
:1001100090E02068FC0120830000DF91CF910895DA
:10012000CF93DF930F92CDB7DEB7898387E290E05C
:10013000FC01208187E290E0207EFC01208387E2A1
:1001400090E0FC01308187E290E02981232BFC01C3
:10015000208386E290E0FC01208186E290E020642A
:10016000FC012083000086E290E0FC018081829502
:100170008F70882F90E081709927892BA1F3000060
:100180000F90DF91CF910895CF93DF93CDB7DEB776
:1001900084E290E0FC0180819181DF91CF9108950C
:1001A000CF93DF9300D000D0CDB7DEB79C838B8395
:1001B0008B819C819C0140E050E088E893E1DC0168
:1001C0000E945A11DC01CB01072E7AE0B695A79563
:1001D000979587957A95D1F7702D9A838983898130
:1001E0009A810F900F900F900F90DF91CF9108950B
:1001F000CF93DF9300D00F92CDB7DEB789836A83A8
:100200004B838981882F90E08130910509F442C0A9
:10021000823091051CF4892B49F0DEC082309105B3
:1002200009F46CC0039709F49DC0D6C08B81882364
:10023000B9F48AE390E0FC018081482F8A81282F5D
:1002400030E081E090E002C0880F991F2A95E2F724
:100250008095242F28238AE390E0FC012083B5C0F9
:100260008B81813009F0B1C08AE390E0FC0180818C
:10027000482F8A81282F30E081E090E002C0880F6B
:10028000991F2A95E2F7242F282B8AE390E0FC019E
:1002900020839BC08B818823B9F487E390E0FC0125
:1002A0008081482F8A81282F30E081E090E002C0D1
:1002B000880F991F2A95E2F78095242F282387E33A
:1002C00090E0FC01208383C08B81813009F07FC0E6
:1002D00087E390E0FC018081482F8A81282F30E05D
:1002E00081E090E002C0880F991F2A95E2F7242F41
:1002F000282B87E390E0FC01208369C08B81882351
:10030000B9F484E390E0FC018081482F8A81282F92
:1003100030E081E090E002C0880F991F2A95E2F753
:100320008095242F282384E390E0FC01208351C092
:100330008B81813009F04DC084E390E0FC01808125
:10034000482F8A81282F30E081E090E002C0880F9A
:10035000991F2A95E2F7242F282B84E390E0FC01D3
:10036000208337C08B818823B9F481E390E0FC01BE
:100370008081482F8A81282F30E081E090E002C000
:10038000880F991F2A95E2F78095242F282381E36F
:1003900090E0FC0120831FC08B818130E1F481E378
:1003A00090E0FC018081482F8A81282F30E081E095
:1003B00090E002C0880F991F2A95E2F7242F282B7E
:1003C00081E390E0FC01208306C0000005C000002E
:1003D00003C0000001C0000000000F900F900F90BC
:1003E000DF91CF910895CF93DF9300D00F92CDB7D7
:1003F000DEB789836A834B838981882F90E08130BF
:10040000910509F442C0823091051CF4892B49F012
:10041000DEC08230910509F46CC0039709F49DC0D9
:10042000D6C08B818823B9F48BE390E0FC018081F6
:10043000482F8A81282F30E081E090E002C0880FA9
:10044000991F2A95E2F78095242F28238BE390E0CB
:10045000FC012083B5C08B81813009F0B1C08BE3F2
:1004600090E0FC018081482F8A81282F30E081E0D4
:1004700090E002C0880F991F2A95E2F7242F282BBD
:100480008BE390E0FC0120839BC08B818823B9F42F
:1004900088E390E0FC018081482F8A81282F30E09A
:1004A00081E090E002C0880F991F2A95E2F78095BD
:1004B000242F282388E390E0FC01208383C08B81D4
:1004C000813009F07FC088E390E0FC018081482FF3
:1004D0008A81282F30E081E090E002C0880F991FC8
:1004E0002A95E2F7242F282B88E390E0FC01208353
:1004F00069C08B818823B9F485E390E0FC01808199
:10050000482F8A81282F30E081E090E002C0880FD8
:10051000991F2A95E2F78095242F282385E390E000
:10052000FC01208351C08B81813009F04DC085E3EF
:1005300090E0FC018081482F8A81282F30E081E003
:1005400090E002C0880F991F2A95E2F7242F282BEC
:1005500085E390E0FC01208337C08B818823B9F4C8
:1005600082E390E0FC018081482F8A81282F30E0CF
:1005700081E090E002C0880F991F2A95E2F78095EC
:10058000242F282382E390E0FC0120831FC08B816D
:100590008130E1F482E390E0FC018081482F8A8180
:1005A000282F30E081E090E002C0880F991F2A9543
:1005B000E2F7242F282B82E390E0FC01208306C081
:1005C000000005C0000003C0000001C000000000E2
:1005D0000F900F900F90DF91CF910895CF93DF93FD
:1005E00000D0CDB7DEB789836A838981882F90E0F8
:1005F00081309105E1F0823091051CF4892B39F0AE
:1006000046C08230910519F1039789F140C089E312
:1006100090E0FC018081882F90E02A81222F30E039
:1006200002C0959587952A95E2F7817031C086E3DF
:1006300090E0FC018081882F90E02A81222F30E019
:1006400002C0959587952A95E2F7817021C086E3CF
:1006500090E0FC018081882F90E02A81222F30E0F9
:1006600002C0959587952A95E2F7817011C086E3BF
:1006700090E0FC018081882F90E02A81222F30E0D9
:1006800002C0959587952A95E2F7817001C080E0B8
:100690000F900F90DF91CF910895CF93DF9300D00B
:1006A000CDB7DEB789836A838981882F90E0813056
:1006B000910541F1823091051CF4892B41F078C0FD
:1006C00082309105D1F1039709F451C071C08A813C
:1006D000882351F48AE390E0FC0120818AE390E0D2
:1006E000207FFC0120835DC08A81813009F059C0E0
:1006F0008AE390E0FC0120818AE390E02F60FC0116
:1007000020834FC08A81882351F487E390E0FC0165
:10071000208187E390E0207FFC01208344C08A8110
:10072000813009F040C087E390E0FC01208187E33D
:1007300090E02F60FC01208336C08A81882351F429
:1007400084E390E0FC01208184E390E0207FFC01C1
:1007500020832BC08A81813041F584E390E0FC0145
:10076000208184E390E02F60FC0120831EC08A81F9
:10077000882351F481E390E0FC01208181E390E043
:10078000207FFC01208313C08A81813081F481E3C2
:1007900090E0FC01208181E390E02F60FC01208348
:1007A00006C0000005C0000003C0000001C000003A
:1007B00000000F900F90DF91CF910895CF93DF93BA
:1007C00000D0CDB7DEB789836A838981882F90E016
:1007D0008130910501F1823091051CF4892B39F0AB
:1007E00056C08230910559F10397E9F150C08BE36F
:1007F00090E0FC0120818BE390E0207FFC012083CE
:100800008BE390E0FC0130818BE390E02A81232B85
:10081000FC0120833CC088E390E0FC01208188E358
:1008200090E0207FFC01208388E390E0FC01308190
:1008300088E390E02A81232BFC01208328C085E3F4
:1008400090E0FC01208185E390E0207FFC01208383
:1008500085E390E0FC01308185E390E02A81232B41
:10086000FC01208314C082E390E0FC01208182E33C
:1008700090E0207FFC01208382E390E0FC01308146
:1008800082E390E02A81232BFC01208300000000FA
:100890000F900F90DF91CF910895CF93DF9300D009
:1008A000CDB7DEB789836A838981882F90E0813054
:1008B000910541F1823091051CF4892B41F078C0FB
:1008C00082309105D1F1039709F451C071C08A813A
:1008D000882351F48AE390E0FC0120818AE390E0D0
:1008E0002F70FC0120835DC08A81813009F059C0DE
:1008F0008AE390E0FC0120818AE390E0206FFC0114
:1009000020834FC08A81882351F487E390E0FC0163
:10091000208187E390E02F70FC01208344C08A810E
:10092000813009F040C087E390E0FC01208187E33B
:1009300090E0206FFC01208336C08A81882351F427
:1009400084E390E0FC01208184E390E02F70FC01BF
:1009500020832BC08A81813041F584E390E0FC0143
:10096000208184E390E0206FFC0120831EC08A81F7
:10097000882351F481E390E0FC01208181E390E041
:100980002F70FC01208313C08A81813081F481E3C0
:1009900090E0FC01208181E390E0206FFC01208346
:1009A00006C0000005C0000003C0000001C0000038
:1009B00000000F900F90DF91CF910895CF93DF93B8
:1009C00000D0CDB7DEB789836A838981882F90E014
:1009D0008130910559F1823091051CF4892B49F041
:1009E0007CC08230910509F43EC0039709F458C0D9
:1009F00074C08BE390E0FC0120818BE390E02F70CA
:100A0000FC0120838BE390E0FC018081282F8A8108
:100A1000882F90E082959295907F9827807F9827E5
:100A2000282B8BE390E0FC01208357C088E390E003
:100A3000FC01208188E390E02F70FC01208388E393
:100A400090E0FC018081282F8A81882F90E0829598
:100A50009295907F9827807F9827282B88E390E0B5
:100A6000FC0120833AC085E390E0FC01208185E30E
:100A700090E02F70FC01208385E390E0FC018081F1
:100A8000282F8A81882F90E082959295907F9827D1
:100A9000807F9827282B85E390E0FC0120831DC0F0
:100AA00082E390E0FC01208182E390E02F70FC0162
:100AB000208382E390E0FC018081282F8A81882FA7
:100AC00090E082959295907F9827807F9827282B99
:100AD00082E390E0FC012083000000000F900F9063
:100AE000DF91CF910895CF93DF930F92CDB7DEB70B
:100AF00089838981882F90E0009719F00197E9F0A8
:100B000038C085E590E0FC01208185E590E02E7FEE
:100B1000FC01208385E590E0FC01208185E590E0E3
:100B20002D7FFC0120838BE590E0FC0120818BE58B
:100B300090E02064FC0120831CC085E590E0FC016E
:100B4000208185E590E02B7FFC01208385E590E006
:100B5000FC01208185E590E0277FFC0120838BE567
:100B600090E0FC0120818BE590E02068FC0120836F
:100B7000000000000F90DF91CF910895CF93DF9395
:100B8000CDB7DEB78FE590E0FC0120818FE590E0E6
:100B90002068FC0120830000DF91CF910895CF935E
:100BA000DF93CDB7DEB72E970FB6F894DEBF0FBE3A
:100BB000CDBF82E00E94700682E00E94700688E24B
:100BC0000E94700680E00E9470068FE00E9470060E
:100BD00080E00E94700681E00E94700680E090E054
:100BE000A0E0B0E489839A83AB83BC8320E030E04B
:100BF0004AEF54E469817A818B819C810E94EB11D8
:100C0000DC01CB018D839E83AF83B88720E030E089
:100C100040E85FE36D817E818F8198850E94651138
:100C200088232CF481E090E09A8789873FC020E0F8
:100C30003FEF4FE757E46D817E818F8198850E9459
:100C4000E61118164CF520E030E040E251E46981ED
:100C50007A818B819C810E94EB11DC01CB01BC016C
:100C6000CD010E946A11DC01CB019A8789870FC0F0
:100C700088EC90E09C878B878B859C850197F1F7AA
:100C80009C878B8789859A8501979A87898789852B
:100C90009A85892B69F714C06D817E818F81988533
:100CA0000E946A11DC01CB019A87898789859A8520
:100CB0009E878D878D859E850197F1F79E878D870D
:100CC00080E00E94700686E00E94700600002E966A
:100CD0000FB6F894DEBF0FBECDBFDF91CF91089560
:100CE000CF93DF93CDB7DEB76D970FB6F894DEBF25
:100CF0000FBECDBF8D8F40E060E082E00E94F30127
:100D000040E061E082E00E94F3016D8D82E00E948C
:100D1000DE0441E062E082E00E94F30180E090E0C6
:100D2000A0EAB0E48F87988BA98BBA8B20E030E0E3
:100D30004AEF54E46F85788989899A890E94EB117A
:100D4000DC01CB018B8B9C8BAD8BBE8B20E030E02C
:100D500040E85FE36B897C898D899E890E946511DB
:100D600088232CF481E090E0988F8F8B3FC020E0A7
:100D70003FEF4FE757E46B897C898D899E890E94FC
:100D8000E61118164CF520E030E040E251E46F85A2
:100D9000788989899A890E94EB11DC01CB01BC0119
:100DA000CD010E946A11DC01CB01988F8F8B0FC09F
:100DB00088EC90E09A8F898F898D9A8D0197F1F751
:100DC0009A8F898F8F89988D0197988F8F8B8F89B4
:100DD000988D892B69F714C06B897C898D899E89D0
:100DE0000E946A11DC01CB01988F8F8B8F89988DBF
:100DF0009C8F8B8F8B8D9C8D0197F1F79C8F8B8FA8
:100E000040E062E082E00E94F30180E090E0A0E830
:100E1000BFE389839A83AB83BC8320E030E04AEF51
:100E200054E469817A818B819C810E94EB11DC0101
:100E3000CB018D839E83AF83B88720E030E040E80C
:100E40005FE36D817E818F8198850E946511882383
:100E50002CF481E090E09A87898740C020E03FEF42
:100E60004FE757E46D817E818F8198850E94E6115E
:100E7000181654F520E030E040E251E469817A81AF
:100E80008B819C810E94EB11DC01CB01BC01CD0167
:100E90000E946A11DC01CB019A8789870FC088EC18
:100EA00090E09C878B878B859C850197F1F79C87C9
:100EB0008B8789859A8501979A87898789859A85FD
:100EC000892B69F7000014C06D817E818F81988520
:100ED0000E946A11DC01CB019A87898789859A85EE
:100EE0009E878D878D859E850197F1F79E878D87DB
:100EF00000006D960FB6F894DEBF0FBECDBFDF9138
:100F0000CF910895CF93DF93CDB7DEB76D970FB62E
:100F1000F894DEBF0FBECDBF8D8F41E060E082E070
:100F20000E94F30140E061E082E00E94F3016D8DD8
:100F300082E00E94DE0441E062E082E00E94F30170
:100F400080E090E0A0EAB0E48F87988BA98BBA8B01
:100F500020E030E04AEF54E46F85788989899A89E6
:100F60000E94EB11DC01CB018B8B9C8BAD8BBE8B7C
:100F700020E030E040E85FE36B897C898D899E89C1
:100F80000E94651188232CF481E090E0988F8F8B6C
:100F90003FC020E03FEF4FE757E46B897C898D89A4
:100FA0009E890E94E61118164CF520E030E040E2E0
:100FB00051E46F85788989899A890E94EB11DC0157
:100FC000CB01BC01CD010E946A11DC01CB01988FDD
:100FD0008F8B0FC088EC90E09A8F898F898D9A8DC6
:100FE0000197F1F79A8F898F8F89988D0197988F44
:100FF0008F8B8F89988D892B69F714C06B897C89B9
:101000008D899E890E946A11DC01CB01988F8F8B9C
:101010008F89988D9C8F8B8F8B8D9C8D0197F1F78D
:101020009C8F8B8F40E062E082E00E94F30180E0C1
:1010300090E0A0E8BFE389839A83AB83BC8320E080
:1010400030E04AEF54E469817A818B819C810E946F
:10105000EB11DC01CB018D839E83AF83B88720E049
:1010600030E040E85FE36D817E818F8198850E944A
:10107000651188232CF481E090E09A87898740C02D
:1010800020E03FEF4FE757E46D817E818F819885A7
:101090000E94E611181654F520E030E040E251E4D9
:1010A00069817A818B819C810E94EB11DC01CB01EB
:1010B000BC01CD010E946A11DC01CB019A878987AE
:1010C0000FC088EC90E09C878B878B859C8501976F
:1010D000F1F79C878B8789859A8501979A878987FD
:1010E00089859A85892B69F7000014C06D817E81FE
:1010F0008F8198850E946A11DC01CB019A878987CC
:1011000089859A859E878D878D859E850197F1F7C4
:101110009E878D8700006D960FB6F894DEBF0FBED8
:10112000CDBFDF91CF910895CF93DF930F92CDB7CD
:10113000DEB78983898182958F700E9482078981B9
:101140000E94820700000F90DF91CF910895CF9306
:10115000DF93CDB7DEB729970FB6F894DEBF0FBE89
:10116000CDBF99878887198288859985892BD9F57C
:1011700080E30E9494083BC0488559859A01ADECF4
:10118000BCEC0E944B119C0136952795369527950E
:1011900036952795C901880F991F880F991F820FCF
:1011A000931F880F991F9A01281B390B8981882F5B
:1011B00090E0422F9E012D5F3F4F820F931FFC0155
:1011C0004083888599859C01ADECBCEC0E944B1155
:1011D000969587959695879596958795998788870B
:1011E00089818F5F898388859985892B29F68981F3
:1011F00081508A8311C08A81082E000C990B9E01B0
:101200002D5F3F4F820F931FFC018081805D0E9404
:1012100094088A8181508A838A81882364F7000038
:1012200029960FB6F894DEBF0FBECDBFDF91CF91E8
:101230000895CF93DF9300D00F92CDB7DEB79B8395
:101240008A8319820EC08981882F90E02A813B8190
:10125000820F931FFC0180810E94940889818F5F17
:1012600089838981882F90E02A813B81820F931F97
:10127000FC018081882339F700000F900F900F90B8
:10128000DF91CF910895CF93DF93CDB7DEB78DE295
:1012900090E0FC0120818DE290E02062FC0120833F
:1012A0008DE290E0FC0120818DE290E0277FFC013F
:1012B00020838DE290E0FC0120818DE290E02B7F85
:1012C000FC0120838EE290E0FC0120818EE290E020
:1012D0002E7FFC0120838DE290E0FC0120818DE2D5
:1012E00090E02E7FFC0120838DE290E0FC012081C4
:1012F0008DE290E02260FC0120838DE290E0FC0111
:1013000020818DE290E02061FC0120838DE290E05D
:10131000FC0120818DE290E02064FC01208300002C
:10132000DF91CF910895CF93DF93CDB7DEB78DE2F4
:1013300090E0FC0120818DE290E02062FC0120839E
:101340008DE290E0FC0120818DE290E0277FFC019E
:1013500020838DE290E0FC0120818DE290E02B7FE4
:10136000FC0120838DE290E0FC0120818DE290E081
:101370002F7EFC0120838DE290E0FC0120818DE234
:1013800090E02064FC0120830000DF91CF9108955C
:10139000CF93DF930F92CDB7DEB789838FE290E0D2
:1013A0002981FC01208300008EE290E0FC01808115
:1013B000881F8827881F882F90E081709927892BA4
:1013C00099F38FE290E0FC0180810F90DF91CF9143
:1013D0000895CF93DF930F92CDB7DEB7198289813D
:1013E0008F7B898389818F7D898389818F7E8983A2
:1013F0008981877F898389818260898389818460EB
:10140000898389818068898380E490E02981FC0157
:10141000208389E290E023E3FC0120838AE290E0CC
:10142000FC0120818AE290E02860FC0120838AE2AE
:1014300090E0FC0120818AE290E02061FC012083A1
:101440008AE290E0FC0120818AE290E02B7FFC019F
:10145000208300000F90DF91CF910895CF93DF9309
:101460000F92CDB7DEB7898300008BE290E0FC01DC
:101470008081829586958770882F90E0817099276A
:10148000892B99F38CE290E02981FC0120830000F4
:101490000F90DF91CF910895CF93DF93CDB7DEB753
:1014A00000008BE290E0FC018081881F8827881F64
:1014B000882F90E081709927892B99F38CE290E036
:1014C000FC018081DF91CF9108950F931F93CF93FB
:1014D000DF93CDB7DEB7CB54D1090FB6F894DEBF9A
:1014E0000FBECDBF198241E060E082E00E94F800AB
:1014F00041E061E082E00E94F80041E062E082E0C9
:101500000E94F80061E082E00E944D0440E060E04B
:1015100080E00E94F80040E062E083E00E94F80072
:1015200041E062E083E00E94F30140E063E083E099
:101530000E94F80041E063E083E00E94F30141E093
:1015400062E081E00E94F80040E060E083E00E94F9
:10155000F80041E061E083E00E94F80041E065E0CE
:1015600081E00E94F80040E066E081E00E94F8001F
:1015700041E064E081E00E94F80041E067E081E042
:101580000E94F80040E064E081E00E94F3010E94C4
:10159000CF050E9449000E94E9090E94430980E0AA
:1015A0000E9473050E94BE0584E690E00E9419091E
:1015B00080E090E8ABEBB4E48A839B83AC83BD838B
:1015C00020E030E04AEF54E46A817B818C819D8188
:1015D0000E94EB11DC01CB018E839F83A887B98722
:1015E00020E030E040E85FE36E817F818885998567
:1015F0000E94651188232CF481E090E09B878A8704
:101600003FC020E03FEF4FE757E46E817F81888540
:1016100099850E94E61118164CF520E030E040E272
:1016200051E46A817B818C819D810E94EB11DC01F8
:10163000CB01BC01CD010E946A11DC01CB019B876B
:101640008A870FC088EC90E09D878C878C859D856C
:101650000197F1F79D878C878A859B8501979B87EA
:101660008A878A859B85892B69F714C06E817F8163
:10167000888599850E946A11DC01CB019B878A8746
:101680008A859B859F878E878E859F850197F1F739
:101690009F878E878091AD00823061F480E10E9447
:1016A000700681E00E94700684E690E00E941909AD
:1016B0001092AD000E944C0A8F3409F0EDC2809167
:1016C000AC00882309F0E8C280E10E94700681E046
:1016D0000E94700685E790E00E94190980E090E082
:1016E000AAE7B3E4888B998BAA8BBB8B20E030E010
:1016F0004AEF54E4688979898A899B890E94EB11B1
:10170000DC01CB018C8B9D8BAE8BBF8B20E030E05E
:1017100040E85FE36C897D898E899F890E9465110D
:1017200088232CF481E090E0998F888F3FC020E0DF
:101730003FEF4FE757E46C897D898E899F890E942E
:10174000E61118164CF520E030E040E251E46889DB
:1017500079898A899B890E94EB11DC01CB01BC014C
:10176000CD010E946A11DC01CB01998F888F0FC0D7
:1017700088EC90E09B8F8A8F8A8D9B8D0197F1F783
:101780009B8F8A8F888D998D0197998F888F888DEF
:10179000998D892B69F714C06C897D898E899F8901
:1017A0000E946A11DC01CB01998F888F888D998DF9
:1017B0009D8F8C8F8C8D9D8D0197F1F79D8F8C8FD8
:1017C00081E08093AC0068C28981082F10E00E94FC
:1017D0004C0A282FCE01885B9F4F800F911FFC0180
:1017E00020838981882381F48981882F90E09E015C
:1017F000285B3F4F820F931FFC0180810E94940859
:1018000089818F5F898326C08981882F90E0019725
:101810009E01285B3F4F820F931FFC01408189810D
:10182000882F90E09E01285B3F4F820F931FFC01A1
:101830008081481779F08981882F90E09E01285B8C
:101840003F4F820F931FFC0180810E949408898181
:101850008F5F89838981843009F01EC2CE01885B45
:101860009F4FFC01908180916000981709F048C15A
:10187000CE01885B9F4FFC01918180916100981798
:1018800009F03EC1CE01885B9F4FFC01928180919F
:101890006200981709F034C1CE01885B9F4FFC01AC
:1018A000938180916300981709F02AC181E00E941A
:1018B000730580E10E94700681E00E9470068BE74C
:1018C00090E00E94190980E090E8ABEBB4E48CA7AB
:1018D0009DA7AEA7BFA720E030E04AEF54E46CA577
:1018E0007DA58EA59FA50E94EB11DC01CB0188ABE5
:1018F00099ABAAABBBAB20E030E040E85FE368A95E
:1019000079A98AA99BA90E94651188232CF481E0FA
:1019100090E09DAB8CAB3FC020E03FEF4FE757E43A
:1019200068A979A98AA99BA90E94E61118164CF505
:1019300020E030E040E251E46CA57DA58EA59FA596
:101940000E94EB11DC01CB01BC01CD010E946A11A8
:10195000DC01CB019DAB8CAB0FC088EC90E09FAB62
:101960008EAB8EA99FA90197F1F79FAB8EAB8CA987
:101970009DA901979DAB8CAB8CA99DA9892B69F77B
:1019800014C068A979A98AA99BA90E946A11DC01DF
:10199000CB019DAB8CAB8CA99DA999AF88AF88ADCD
:1019A00099AD0197F1F799AF88AF80E00E94900060
:1019B0000E94C4009093B1008093B0008091B00069
:1019C0009091B1000E94D0009093AF008093AE0040
:1019D00080E10E94700681E00E94700683E890E03A
:1019E0000E9419098091AE009091AF009C01ADEC6E
:1019F000BCEC0E944B119695879596958795969588
:101A000087950E94A7088091AE009091AF009093B7
:101A1000AB008093AA0080E090E8ABEBB4E48E8F3B
:101A20009F8FA8A3B9A320E030E04AEF54E46E8D65
:101A30007F8D88A199A10E94EB11DC01CB018AA3C3
:101A40009BA3ACA3BDA320E030E040E85FE36AA124
:101A50007BA18CA19DA10E94651188232CF481E0BB
:101A600090E09FA38EA33FC020E03FEF4FE757E4F5
:101A70006AA17BA18CA19DA10E94E61118164CF5CC
:101A800020E030E040E251E46E8D7F8D88A199A185
:101A90000E94EB11DC01CB01BC01CD010E946A1157
:101AA000DC01CB019FA38EA30FC088EC90E099A727
:101AB00088A788A599A50197F1F799A788A78EA16E
:101AC0009FA101979FA38EA38EA19FA1892B69F748
:101AD00014C06AA17BA18CA19DA10E946A11DC01A6
:101AE000CB019FA38EA38EA19FA19BA78AA78AA5A6
:101AF0009BA50197F1F79BA78AA70E94520EC9C028
:101B000080E10E94700681E00E94700681E990E009
:101B10000E94190980E090E8ABEBB4E48AAF9BAF78
:101B2000ACAFBDAF8E01025C1F4F20E030E04AEF4A
:101B300054E46AAD7BAD8CAD9DAD0E94EB11DC0130
:101B4000CB01F80180839183A283B383CE01CE962B
:101B500020E030E040E85FE3FC0160817181828138
:101B600093810E94651188234CF4CE018E5B9F4FB8
:101B700021E030E0FC013183208367C0CE01CE96A6
:101B800020E03FEF4FE757E4FC01608171818281E3
:101B900093810E94E61118160CF046C020E030E058
:101BA00040E251E46AAD7BAD8CAD9DAD0E94EB117E
:101BB000DC01CB018E010E5B1F4FBC01CD010E94E9
:101BC0006A11DC01CB01F8019183808324C0CE012E
:101BD0008C5B9F4F28EC30E0FC0131832083CE01E9
:101BE0008C5B9F4FFC01808191810197F1F79E01F1
:101BF0002C5B3F4FF90191838083CE018E5B9F4F19
:101C00009E012E5B3F4FF901208131812150310926
:101C1000FC0131832083CE018E5B9F4FFC018081CC
:101C20009181892BA1F62BC08E010E5B1F4FCE0137
:101C3000CE96FC0160817181828193810E946A113C
:101C4000DC01CB01F80191838083CE018A5B9F4F39
:101C50009E012E5B3F4FF90120813181FC013183D0
:101C60002083CE018A5B9F4FFC0180819181019787
:101C7000F1F79E012A5B3F4FF9019183808380E158
:101C80000E94700681E00E94700684E690E00E9447
:101C900019091092AC0019828091AC00882309F0D8
:101CA00093CDF8CCCF93DF93CDB7DEB78091AD0065
:101CB000882309F065C08091AE009091AF004F97E6
:101CC00020F088E40E94C80919C08091AE0090916C
:101CD000AF004E9750F48091AE009091AF004597C1
:101CE00020F08DE40E94C80909C08091AE00909157
:101CF000AF00449718F48CE40E94C8092091AE000C
:101D00003091AF008091AA009091AB00281739075D
:101D1000C1F080E10E94700681E00E94700683E8B5
:101D200090E00E9419098091AE009091AF000E944E
:101D3000A7088091AE009091AF009093AB00809384
:101D4000AA0080E00E9490000E94C4009093B1001D
:101D50008093B0008091B0009091B1000E94D000BB
:101D60009C01ADECBCEC0E944B1196958795969525
:101D70008795969587959093AF008093AE0096CF08
:101D80008091AD00813081F480E10E94700681E095
:101D90000E94700684E690E00E9419098CE40E947B
:101DA000C8091092AD0018C08091AD00823009F0D2
:101DB0007DCF80E10E94700681E00E94700683E87A
:101DC00090E00E9419098091AE009091AF000E94AE
:101DD000A7081092AD006ACFDF91CF9108951F92AE
:101DE0000F920FB60F9211240F931F932F933F93CF
:101DF0004F935F936F937F938F939F93AF93BF9313
:101E0000EF93FF93CF93DF93CDB7DEB76397DEBF3A
:101E1000CDBF198241E062E081E00E94F30180E1E0
:101E20000E94700681E00E9470068CE990E00E949A
:101E300019098981082F10E00E944C0A282FCE0131
:101E40004096800F911FFC0120838981882381F4B3
:101E50008981882F90E09E01205F3F4F820F931F62
:101E6000FC0180810E94940889818F5F898326C04C
:101E70008981882F90E001979E01205F3F4F820F5C
:101E8000931FFC0140818981882F90E09E01205F93
:101E90003F4F820F931FFC018081481779F08981A1
:101EA000882F90E09E01205F3F4F820F931FFC011F
:101EB00080810E94940889818F5F89838981843021
:101EC00009F0B7CF9889809160009817C1F499897B
:101ED00080916100981799F49A898091620098170F
:101EE00071F49B8980916300981749F440E062E0A7
:101EF00081E00E94F30182E08093AD0088C080E120
:101F00000E94700681E00E94700681E990E00E94C4
:101F1000190980E090E0AAEFB4E48A839B83AC8344
:101F2000BD8320E030E04AEF54E46A817B818C81FC
:101F30009D810E94EB11DC01CB018E839F83A887DA
:101F4000B98720E030E040E85FE36E817F818885DB
:101F500099850E94651188232CF481E090E09B878D
:101F60008A873FC020E03FEF4FE757E46E817F81D3
:101F7000888599850E94E61118164CF520E030E01E
:101F800040E251E46A817B818C819D810E94EB114A
:101F9000DC01CB01BC01CD010E946A11DC01CB0147
:101FA0009B878A870FC088EC90E09D878C878C8503
:101FB0009D850197F1F79D878C878A859B85019781
:101FC0009B878A878A859B85892B69F714C06E81D8
:101FD0007F81888599850E946A11DC01CB019B87EE
:101FE0008A878A859B859F878E878E859F850197A7
:101FF000F1F79F878E8780E10E94700681E00E9442
:1020000070068CE990E00E941909198212CF63963C
:102010000FB6F894DEBF0FBECDBFDF91CF91FF9119
:10202000EF91BF91AF919F918F917F916F915F9150
:102030004F913F912F911F910F910F900FBE0F90D5
:102040001F9018951F920F920FB60F9211240F93A5
:102050001F932F933F934F935F936F937F938F9330
:102060009F93AF93BF93EF93FF93CF93DF93CDB73E
:10207000DEB76397DEBFCDBF198280E10E94700694
:1020800081E00E9470068CE990E00E941909898124
:10209000082F10E00E944C0A282FCE014096800F96
:1020A000911FFC0120838981882381F48981882FF5
:1020B00090E09E01205F3F4F820F931FFC018081C3
:1020C0000E94940889818F5F898326C08981882F27
:1020D00090E001979E01205F3F4F820F931FFC010C
:1020E00040818981882F90E09E01205F3F4F820FC1
:1020F000931FFC018081481779F08981882F90E037
:102100009E01205F3F4F820F931FFC0180810E9440
:10211000940889818F5F89838981843009F0B7CFE2
:10212000988980916000981799F49989809161004D
:10213000981771F49A8980916200981749F49B89E5
:1021400080916300981721F481E08093AD0088C0EE
:1021500080E10E94700681E00E94700681E990E0B3
:102160000E94190980E090E0AAEFB4E48A839B837F
:10217000AC83BD8320E030E04AEF54E46A817B8188
:102180008C819D810E94EB11DC01CB018E839F83AA
:10219000A887B98720E030E040E85FE36E817F8167
:1021A000888599850E94651188232CF481E090E050
:1021B0009B878A873FC020E03FEF4FE757E46E815F
:1021C0007F81888599850E94E61118164CF520E0DC
:1021D00030E040E251E46A817B818C819D810E94E4
:1021E000EB11DC01CB01BC01CD010E946A11DC01C5
:1021F000CB019B878A870FC088EC90E09D878C87F6
:102200008C859D850197F1F79D878C878A859B85B5
:1022100001979B878A878A859B85892B69F714C0DC
:102220006E817F81888599850E946A11DC01CB01CE
:102230009B878A878A859B859F878E878E859F85CA
:102240000197F1F79F878E8780E10E94700681E0F9
:102250000E9470068CE990E00E941909198217CF3C
:1022600063960FB6F894DEBF0FBECDBFDF91CF915E
:10227000FF91EF91BF91AF919F918F917F916F915E
:102280005F914F913F912F911F910F910F900FBE32
:102290000F901F901895A29FB001B39FC001A39FFC
:1022A000700D811D1124911DB29F700D811D11248F
:1022B000911D08950E944B11A59F900DB49F900D04
:1022C000A49F800D911D112408950E94991108F476
:1022D00081E008950E94C51188F09F5798F0B92FAA
:1022E0009927B751B0F0E1F0660F771F881F991F4B
:1022F0001AF0BA95C9F714C0B13091F00E94DF11FD
:10230000B1E008950C94DF11672F782F8827B85F0C
:1023100039F0B93FCCF3869577956795B395D9F7A2
:102320003EF490958095709561957F4F8F4F9F4FAC
:102330000895990F0008550FAA0BE0E8FEEF161656
:102340001706E807F907C0F012161306E407F507A9
:1023500098F0621B730B840B950B39F40A2661F01D
:10236000232B242B252B21F408950A2609F4A140C0
:10237000A6958FEF811D811D089557FD9058440F3C
:10238000551F59F05F3F71F04795880F97FB991FD4
:1023900061F09F3F79F08795089512161306140691
:1023A000551FF2CF4695F1DF08C01616170618061E
:1023B000991FF1CF86957105610508940895E894F9
:1023C000BB2766277727CB0197F908950E949911BB
:1023D00008F48FEF08950E94FE110C946F120E9472
:1023E000611238F00E94681220F0952311F00C94CD
:1023F00058120C945E1211240C94E0110E94BD112D
:1024000070F3959FC1F3950F50E0551F629FF00147
:10241000729FBB27F00DB11D639FAA27F00DB11D60
:10242000AA1F649F6627B00DA11D661F829F2227E9
:10243000B00DA11D621F739FB00DA11D621F839F70
:10244000A00D611D221F749F3327A00D611D231F46
:10245000849F600D211D822F762F6A2F11249F5794
:1024600050409AF0F1F088234AF0EE0FFF1FBB1F97
:10247000661F771F881F91505040A9F79E3F510556
:1024800080F00C9458120C94E0115F3FE4F3983EF6
:10249000D4F3869577956795B795F795E7959F5F00
:1024A000C1F7FE2B880F911D9695879597F9089592
:1024B00097F99F6780E870E060E008959FEF80ECF7
:1024C000089500240A94161617061806090608959A
:1024D00000240A9412161306140605060895092E00
:1024E0000394000C11F4882352F0BB0F40F4BF2B6F
:1024F00011F460FF04C06F5F7F4F8F4F9F4F0895AF
:04250000F894FFCF7D
:102504003132333453797374656D206973204C6FA1
:10251400636B656400436F64653A0057656C636F71
:102524006D650043757272656E742054656D703A02
:102534000057726F6E6720636F646500456E746543
:0A2544007220636F64653A20000006
:00000001FF
