:100000000C942A000C943F000C943F000C943F0089
:100010000C943F000C943F000C943F000C943F0064
:100020000C943F000C943F000C943F000C943F0054
:100030000C943F000C943F000C943F000C943F0044
:100040000C943F000C943F000C943F000C943F0034
:100050000C943F0011241FBECFE5D8E0DEBFCDBF1A
:1000600010E0A0E6B0E0EAEAFEE002C005900D92E2
:10007000A037B107D9F70E940B060C9453070C94D4
:100080000000CF93DF9300D00F92CDB7DEB7898306
:100090006A834B838981882F90E08130910509F430
:1000A00042C0823091051CF4892B49F0DEC08230B9
:1000B000910509F46CC0039709F49DC0D6C08B81EB
:1000C0008823B9F48AE390E0FC018081482F8A817B
:1000D000282F30E081E090E002C0880F991F2A9518
:1000E000E2F78095242F28238AE390E0FC01208307
:1000F000B5C08B81813009F0B1C08AE390E0FC018A
:100100008081482F8A81282F30E081E090E002C072
:10011000880F991F2A95E2F7242F282B8AE390E075
:10012000FC0120839BC08B818823B9F487E390E096
:10013000FC018081482F8A81282F30E081E090E007
:1001400002C0880F991F2A95E2F78095242F282353
:1001500087E390E0FC01208383C08B81813009F02C
:100160007FC087E390E0FC018081482F8A81282F9F
:1001700030E081E090E002C0880F991F2A95E2F7F5
:10018000242F282B87E390E0FC01208369C08B811A
:100190008823B9F484E390E0FC018081482F8A81B0
:1001A000282F30E081E090E002C0880F991F2A9547
:1001B000E2F78095242F282384E390E0FC0120833C
:1001C00051C08B81813009F04DC084E390E0FC0187
:1001D0008081482F8A81282F30E081E090E002C0A2
:1001E000880F991F2A95E2F7242F282B84E390E0AB
:1001F000FC01208337C08B818823B9F481E390E030
:10020000FC018081482F8A81282F30E081E090E036
:1002100002C0880F991F2A95E2F78095242F282382
:1002200081E390E0FC0120831FC08B818130E1F4E9
:1002300081E390E0FC018081482F8A81282F30E003
:1002400081E090E002C0880F991F2A95E2F7242FE1
:10025000282B81E390E0FC01208306C0000005C04C
:10026000000003C0000001C0000000000F900F90CC
:100270000F90DF91CF910895CF93DF9300D00F922D
:10028000CDB7DEB789836A834B838981882F90E05D
:100290008130910509F442C0823091051CF4892B0C
:1002A00049F0DEC08230910509F46CC0039709F46F
:1002B0009DC0D6C08B818823B9F48BE390E0FC010C
:1002C0008081482F8A81282F30E081E090E002C0B1
:1002D000880F991F2A95E2F78095242F28238BE316
:1002E00090E0FC012083B5C08B81813009F0B1C062
:1002F0008BE390E0FC018081482F8A81282F30E039
:1003000081E090E002C0880F991F2A95E2F7242F20
:10031000282B8BE390E0FC0120839BC08B818823FA
:10032000B9F488E390E0FC018081482F8A81282F6E
:1003300030E081E090E002C0880F991F2A95E2F733
:100340008095242F282388E390E0FC01208383C03C
:100350008B81813009F07FC088E390E0FC018081CF
:10036000482F8A81282F30E081E090E002C0880F7A
:10037000991F2A95E2F7242F282B88E390E0FC01AF
:10038000208369C08B818823B9F485E390E0FC0168
:100390008081482F8A81282F30E081E090E002C0E0
:1003A000880F991F2A95E2F78095242F282385E34B
:1003B00090E0FC01208351C08B81813009F04DC059
:1003C00085E390E0FC018081482F8A81282F30E06E
:1003D00081E090E002C0880F991F2A95E2F7242F50
:1003E000282B85E390E0FC01208337C08B81882394
:1003F000B9F482E390E0FC018081482F8A81282FA4
:1004000030E081E090E002C0880F991F2A95E2F762
:100410008095242F282382E390E0FC0120831FC0D5
:100420008B818130E1F482E390E0FC018081482FF0
:100430008A81282F30E081E090E002C0880F991F68
:100440002A95E2F7242F282B82E390E0FC012083F9
:1004500006C0000005C0000003C0000001C000008D
:1004600000000F900F900F90DF91CF910895CF93E0
:10047000DF9300D0CDB7DEB789836A838981882F67
:1004800090E081309105E1F0823091051CF4892BD8
:1004900039F046C08230910519F1039789F140C0C7
:1004A00089E390E0FC018081882F90E02A81222F4F
:1004B00030E002C0959587952A95E2F7817031C0AA
:1004C00086E390E0FC018081882F90E02A81222F32
:1004D00030E002C0959587952A95E2F7817021C09A
:1004E00086E390E0FC018081882F90E02A81222F12
:1004F00030E002C0959587952A95E2F7817011C08A
:1005000086E390E0FC018081882F90E02A81222FF1
:1005100030E002C0959587952A95E2F7817001C079
:1005200080E00F900F90DF91CF910895CF93DF93EC
:1005300000D0CDB7DEB789836A838981882F90E0A8
:100540008130910541F1823091051CF4892B41F0F5
:1005500078C082309105D1F1039709F451C071C080
:100560008A81882351F48AE390E0FC0120818AE3A8
:1005700090E0207FFC0120835DC08A81813009F0FA
:1005800059C08AE390E0FC0120818AE390E02F606B
:10059000FC0120834FC08A81882351F487E390E0D7
:1005A000FC01208187E390E0207FFC01208344C090
:1005B0008A81813009F040C087E390E0FC0120810E
:1005C00087E390E02F60FC01208336C08A81882376
:1005D00051F484E390E0FC01208184E390E0207FEB
:1005E000FC0120832BC08A81813041F584E390E0B7
:1005F000FC01208184E390E02F60FC0120831EC079
:100600008A81882351F481E390E0FC01208181E319
:1006100090E0207FFC01208313C08A81813081F427
:1006200081E390E0FC01208181E390E02F60FC01F8
:10063000208306C0000005C0000003C0000001C008
:10064000000000000F900F90DF91CF910895CF939D
:10065000DF9300D0CDB7DEB789836A838981882F85
:1006600090E08130910501F1823091051CF4892BD5
:1006700039F056C08230910559F10397E9F150C025
:100680008BE390E0FC0120818BE390E0207FFC0174
:1006900020838BE390E0FC0130818BE390E02A81A2
:1006A000232BFC0120833CC088E390E0FC012081E7
:1006B00088E390E0207FFC01208388E390E0FC0148
:1006C000308188E390E02A81232BFC01208328C01D
:1006D00085E390E0FC01208185E390E0207FFC0130
:1006E000208385E390E0FC01308185E390E02A815E
:1006F000232BFC01208314C082E390E0FC012081C5
:1007000082E390E0207FFC01208382E390E0FC0103
:10071000308182E390E02A81232BFC0120830000BA
:1007200000000F900F90DF91CF910895CF93DF934A
:1007300000D0CDB7DEB789836A838981882F90E0A6
:100740008130910541F1823091051CF4892B41F0F3
:1007500078C082309105D1F1039709F451C071C07E
:100760008A81882351F48AE390E0FC0120818AE3A6
:1007700090E02F70FC0120835DC08A81813009F0F8
:1007800059C08AE390E0FC0120818AE390E0206F69
:10079000FC0120834FC08A81882351F487E390E0D5
:1007A000FC01208187E390E02F70FC01208344C08E
:1007B0008A81813009F040C087E390E0FC0120810C
:1007C00087E390E0206FFC01208336C08A81882374
:1007D00051F484E390E0FC01208184E390E02F70E9
:1007E000FC0120832BC08A81813041F584E390E0B5
:1007F000FC01208184E390E0206FFC0120831EC077
:100800008A81882351F481E390E0FC01208181E317
:1008100090E02F70FC01208313C08A81813081F425
:1008200081E390E0FC01208181E390E0206FFC01F6
:10083000208306C0000005C0000003C0000001C006
:10084000000000000F900F90DF91CF910895CF939B
:10085000DF9300D0CDB7DEB789836A838981882F83
:1008600090E08130910559F1823091051CF4892B7B
:1008700049F07CC08230910509F43EC0039709F429
:1008800058C074C08BE390E0FC0120818BE390E0C2
:100890002F70FC0120838BE390E0FC018081282FE6
:1008A0008A81882F90E082959295907F9827807F0B
:1008B0009827282B8BE390E0FC01208357C088E326
:1008C00090E0FC01208188E390E02F70FC01208300
:1008D00088E390E0FC018081282F8A81882F90E0B6
:1008E00082959295907F9827807F9827282B88E380
:1008F00090E0FC0120833AC085E390E0FC01208178
:1009000085E390E02F70FC01208385E390E0FC01FB
:100910008081282F8A81882F90E082959295907F00
:100920009827807F9827282B85E390E0FC0120837F
:100930001DC082E390E0FC01208182E390E02F70F3
:10094000FC01208382E390E0FC018081282F8A81D2
:10095000882F90E082959295907F9827807F9827A6
:10096000282B82E390E0FC012083000000000F9020
:100970000F90DF91CF910895CF93DF93CDB7DEB77E
:10098000A1970FB6F894DEBF0FBECDBF85E78B836E
:1009900080E1E0E6F0E0DE01529601900D928A954A
:1009A000E1F71982AEC040E0698180E00E943C011D
:1009B0001A829BC06A8181E00E943702882309F075
:1009C00091C072C080E090E0A8ECB1E48C839D837C
:1009D000AE83BF8320E030E04AEF54E46C817D8138
:1009E0008E819F810E94BE06DC01CB01888799879A
:1009F000AA87BB8720E030E040E85FE3688579851F
:100A00008A859B850E94380688232CF481E090E03B
:100A10009D878C873FC020E03FEF4FE757E4688514
:100A200079858A859B850E94B90618164CF520E0C9
:100A300030E040E251E46C817D818E819F810E9493
:100A4000BE06DC01CB01BC01CD010E943D06DC01EC
:100A5000CB019D878C870FC088EC90E09F878E87A5
:100A60008E859F850197F1F79F878E878C859D8561
:100A700001979D878C878C859D85892B69F714C08C
:100A8000688579858A859B850E943D06DC01CB01BE
:100A90009D878C878C859D85998B888B8889998982
:100AA0000197F1F7998B888B6A8181E00E94370268
:100AB000882309F487CF8A81282F30E08981882F05
:100AC00090E0220F331F220F331FAE014F5F5F4FA5
:100AD000240F351F820F931F4196FC0180818B8369
:100AE0008B8114C08A818F5F8A838A81843008F465
:100AF00061CF41E0698180E00E943C0189818F5F84
:100B000089838981843008F44ECF8B81A1960FB6FA
:100B1000F894DEBF0FBECDBFDF91CF910895CF9384
:100B2000DF930F92CDB7DEB7198289818F7B8983DE
:100B300089818F7D898389818F7E89838981877F60
:100B4000898389818260898389818460898389819D
:100B50008068898380E490E02981FC01208389E218
:100B600090E023E3FC0120838AE290E0FC012081F5
:100B70008AE290E02860FC0120838AE290E0FC0198
:100B800020818AE290E02061FC0120838AE290E0EB
:100B9000FC0120818AE290E02B7FFC012083000091
:100BA0000F90DF91CF910895CF93DF930F92CDB740
:100BB000DEB7898300008BE290E0FC0180818295A2
:100BC00086958770882F90E081709927892B99F3FB
:100BD0008CE290E02981FC01208300000F90DF91DE
:100BE000CF910895CF93DF93CDB7DEB700008BE2AE
:100BF00090E0FC018081881F8827881F882F90E063
:100C000081709927892B99F38CE290E0FC01808117
:100C1000DF91CF910895CF93DF930F92CDB7DEB7D9
:100C200061E080E00E94960260E081E00E9496020E
:100C30006FE081E00E9427036FE080E00E942703BD
:100C400040E060E083E00E94410041E061E083E039
:100C50000E9441000E948F0585E789830E94BC04A1
:100C6000898389818537D1F389810E94D405F6CFA4
:100C70000E946C0608F481E008950E94980688F0AE
:100C80009F5798F0B92F9927B751B0F0E1F0660F50
:100C9000771F881F991F1AF0BA95C9F714C0B13091
:100CA00091F00E94B206B1E008950C94B206672F4D
:100CB000782F8827B85F39F0B93FCCF386957795C0
:100CC0006795B395D9F73EF49095809570956195A9
:100CD0007F4F8F4F9F4F0895990F0008550FAA0B14
:100CE000E0E8FEEF16161706E807F907C0F012163F
:100CF0001306E407F50798F0621B730B840B950B42
:100D000039F40A2661F0232B242B252B21F4089596
:100D10000A2609F4A140A6958FEF811D811D089533
:100D200057FD9058440F551F59F05F3F71F047959C
:100D3000880F97FB991F61F09F3F79F08795089581
:100D4000121613061406551FF2CF4695F1DF08C0A0
:100D5000161617061806991FF1CF869571056105BD
:100D600008940895E894BB2766277727CB0197F965
:100D700008950E946C0608F48FEF08950E94D10632
:100D80000C9442070E94340738F00E943B0720F081
:100D9000952311F00C942B070C94310711240C941B
:100DA000B3060E94900670F3959FC1F3950F50E033
:100DB000551F629FF001729FBB27F00DB11D639F0D
:100DC000AA27F00DB11DAA1F649F6627B00DA11DB3
:100DD000661F829F2227B00DA11D621F739FB00D59
:100DE000A11D621F839FA00D611D221F749F3327C9
:100DF000A00D611D231F849F600D211D822F762F62
:100E00006A2F11249F5750409AF0F1F088234AF03E
:100E1000EE0FFF1FBB1F661F771F881F91505040AA
:100E2000A9F79E3F510580F00C942B070C94B30654
:100E30005F3FE4F3983ED4F3869577956795B79531
:100E4000F795E7959F5FC1F7FE2B880F911D96954B
:100E5000879597F9089597F99F6780E870E060E0BB
:100E600008959FEF80EC089500240A941616170643
:100E700018060906089500240A941216130614068B
:100E800005060895092E0394000C11F4882352F0EE
:100E9000BB0F40F4BF2B11F460FF04C06F5F7F4FA6
:0A0EA0008F4F9F4F0895F894FFCF85
:100EAA0037383944343536783132332D4F303D2B8B
:00000001FF
